:0200000046298F
:10000600831203130711071D5528051E0D28071D0A
:100016000D2808280330D2000030D3008030530664
:10002600F00080307002031D1A2800305202031CB3
:100036005428071D4E2800305906031D2428003079
:100046005806031D28288813081700305906031D73
:100056002E2801305806031D32280812881552082A
:10006600F0005308F100F00DF10D70107008203EFD
:100076008400000886000B30FB002630FC005D3053
:10008600FD00FD0B4428FC0B4428FB0B4428000014
:10009600000007114F2854280130D202031CD30355
:0E00A600112856285928051A592856280800EE
:0E00B4008312031355088A00540882000800C6
:1000C200831203135808D2005908D3008030530614
:1000D200F00080307002031D702800305202031CB1
:1000E200BA28071D7728DA01DB01BA285208F00086
:1000F2005308F100F00DF10D70107008203E8400DD
:100102000008860000305306031D8928033052067A
:10011200031D952800305B06031D912800305A0606
:10012200031D95288813081700305306031D9B28CA
:1001320003305206031DA72800305B06031DA328C7
:1001420001305A06031DA728881508120B30FB0040
:100152002630FC005D30FD00FD0BAD28FC0BAD2808
:10016200FB0BAD28000000000130D202031CD303B8
:0401720067280800F2
:1001760083120313071DEC2800305706031DC528FC
:1001860000305606031DD72808128811081588174F
:100196005608D8005708D9000320881608110816F3
:1001A6000813D60A0319D70A00305706031DDD289F
:1001B60001305606031DE9285608D8005708D9000D
:1001C6000320881208160615D601D70186010711E5
:0401D600BB2808003A
:1001DA005A208A110A128000840AD40A0319D50AFD
:0801EA00F003031DED280800DD
:1001F200831203130719452900305706031D0329EB
:1002020000305606031D1829081588171730D80024
:100212000030D9005608DA005708DB006120071DBC
:100222001329452908110813D60A0319D70A0030E1
:100232005706031D1E2901305606031D33290816D1
:1002420088160F30D8000030D9005608DA00570857
:10025200DB006120071D2E29452908128812D60AC3
:100262000319D70A00305706031D392902305606F2
:10027200031D4429071944298811081588170812F3
:0A0282000811D601D701F928080081
:10028C00A2210730831603139F0086018801870182
:10029C008312850183160516831288018601870156
:1002AC00071488018601071961295008D6005108E6
:1002BC00D700F92066295008D6005108D700BB207A
:0402CC00572967291E
:1003440020308400343083120313F0006D30D40065
:080354000130D500ED20080086
:1002DA00003400340134003402340034033400346E
:1002EA00043400340534003406340034073400344E
:1002FA000834003409340034103400341134003422
:10030A0012340034133400341434003415340034F5
:10031A0016340034173400341834003419340034D5
:10032A00203400342134003422340034233400349D
:04033A000034003457
:04033E000034003453
:02400E004A2F37
:00000001FF
