:02000000442991
:10000600831203130711071D5428051E0D28071D0B
:100016000D2808280330D2000030D3008030530664
:10002600F00080307002031D1A2800305202031CB3
:100036005328071D4D2800305906031D242800307B
:100046005806031D28288813081700305906031D73
:100056002E2801305806031D32280812881552082A
:10006600F0005308F100F00DF10D70107008203EFD
:100076008400000886000230FB000430FC00BA3021
:10008600FD00FD0B4428FC0B4428FB0B4428000014
:1000960007114E2853280130D202031CD30311281E
:0C00A60055285828051A5828552808002D
:0E00B2008312031355088A00540882000800C8
:1000C000831203135808D2005908D3008030530616
:1000D000F00080307002031D6F2800305202031CB4
:1000E000B828071D7628DA01DB01B8285208F0008D
:1000F0005308F100F00DF10D70107008203E8400DF
:100100000008860000305306031D8828033052067D
:10011000031D942800305B06031D902800305A060A
:10012000031D94288813081700305306031D9A28CE
:1001300003305206031DA62800305B06031DA228CB
:1001400001305A06031DA628881508120230FB004C
:100150000430FC00BA30FD00FD0BAC28FC0BAC28D1
:10016000FB0BAC2800000130D202031CD30366282D
:02017000080085
:1001720083120313071DEA2800305706031DC32804
:1001820000305606031DD528081288110815881755
:100192005608D8005708D9000320881608110816F7
:1001A2000813D60A0319D70A00305706031DDB28A5
:1001B20001305606031DE7285608D8005708D90013
:1001C2000320881208160615D601D70186010711E9
:0401D200B928080040
:1001D60059208A110A128000840AD40A0319D50A02
:0801E600F003031DEB280800E3
:1001EE00831203130719432900305706031D0129F3
:1001FE0000305606031D1629081588171730D8002B
:10020E000030D9005608DA005708DB006020071DC1
:10021E001129432908110813D60A0319D70A0030E9
:10022E005706031D1C2901305606031D31290816D9
:10023E0088160F30D8000030D9005608DA0057085B
:10024E00DB006020071D2C29432908128812D60ACC
:10025E000319D70A00305706031D372902305606F8
:10026E00031D4229071942298811081588170812FB
:0A027E000811D601D701F728080087
:10028800A0210730831603139F0086018801870188
:10029800831285018316051683128801860187015A
:1002A80007148801860107195F295008D6005108EC
:1002B800D700F72064295008D6005108D700B92084
:0402C8005529652926
:1003400020308400343083120313F0006B30D4006B
:080350000130D500EB2008008C
:1002D6000034003401340034023400340334003472
:1002E6000434003405340034063400340734003452
:1002F6000834003409340034103400341134003426
:1003060012340034133400341434003415340034F9
:1003160016340034173400341834003419340034D9
:1003260020340034213400342234003423340034A1
:04033600003400345B
:04033A000034003457
:02400E004A2F37
:00000001FF
